{
  "contractName": "Funder",
  "abi": [
    {
      "inputs": [],
      "stateMutability": "nonpayable",
      "type": "constructor"
    },
    {
      "inputs": [],
      "name": "no_ofFunders",
      "outputs": [
        {
          "internalType": "uint256",
          "name": "",
          "type": "uint256"
        }
      ],
      "stateMutability": "view",
      "type": "function",
      "constant": true
    },
    {
      "inputs": [],
      "name": "owner",
      "outputs": [
        {
          "internalType": "address payable",
          "name": "",
          "type": "address"
        }
      ],
      "stateMutability": "view",
      "type": "function",
      "constant": true
    },
    {
      "inputs": [],
      "name": "totalFunding",
      "outputs": [
        {
          "internalType": "uint256",
          "name": "",
          "type": "uint256"
        }
      ],
      "stateMutability": "view",
      "type": "function",
      "constant": true
    },
    {
      "inputs": [],
      "name": "payFund",
      "outputs": [],
      "stateMutability": "payable",
      "type": "function",
      "payable": true
    },
    {
      "inputs": [],
      "name": "transferFunding",
      "outputs": [],
      "stateMutability": "nonpayable",
      "type": "function"
    }
  ],
  "bytecode": "0x608060405234801561001057600080fd5b5033600160006101000a81548173ffffffffffffffffffffffffffffffffffffffff021916908373ffffffffffffffffffffffffffffffffffffffff16021790555061056e806100616000396000f3fe60806040526004361061004a5760003560e01c80636e6f7a721461004f5780636fe4e70f146100665780638974372d146100915780638da5cb5b1461009b578063fe47a8a7146100c6575b600080fd5b34801561005b57600080fd5b506100646100f1565b005b34801561007257600080fd5b5061007b6101ec565b6040516100889190610353565b60405180910390f35b6100996101f2565b005b3480156100a757600080fd5b506100b061030e565b6040516100bd91906103af565b60405180910390f35b3480156100d257600080fd5b506100db610334565b6040516100e89190610353565b60405180910390f35b600160009054906101000a900473ffffffffffffffffffffffffffffffffffffffff1673ffffffffffffffffffffffffffffffffffffffff163373ffffffffffffffffffffffffffffffffffffffff1614610181576040517f08c379a000000000000000000000000000000000000000000000000000000000815260040161017890610427565b60405180910390fd5b600160009054906101000a900473ffffffffffffffffffffffffffffffffffffffff1673ffffffffffffffffffffffffffffffffffffffff166108fc479081150290604051600060405180830381858888f193505050501580156101e9573d6000803e3d6000fd5b50565b60035481565b670de0b6b3a764000034101561023d576040517f08c379a000000000000000000000000000000000000000000000000000000000815260040161023490610493565b60405180910390fd5b60008060003373ffffffffffffffffffffffffffffffffffffffff1673ffffffffffffffffffffffffffffffffffffffff168152602001908152602001600020540361029e5760016003600082825461029691906104e2565b925050819055505b346000803373ffffffffffffffffffffffffffffffffffffffff1673ffffffffffffffffffffffffffffffffffffffff16815260200190815260200160002060008282546102ec91906104e2565b92505081905550346002600082825461030591906104e2565b92505081905550565b600160009054906101000a900473ffffffffffffffffffffffffffffffffffffffff1681565b60025481565b6000819050919050565b61034d8161033a565b82525050565b60006020820190506103686000830184610344565b92915050565b600073ffffffffffffffffffffffffffffffffffffffff82169050919050565b60006103998261036e565b9050919050565b6103a98161038e565b82525050565b60006020820190506103c460008301846103a0565b92915050565b600082825260208201905092915050565b7f4f6e6c79206f776e65722063616e207472616e73666572000000000000000000600082015250565b60006104116017836103ca565b915061041c826103db565b602082019050919050565b6000602082019050818103600083015261044081610404565b9050919050565b7f496e76616c696420416d6f756e74000000000000000000000000000000000000600082015250565b600061047d600e836103ca565b915061048882610447565b602082019050919050565b600060208201905081810360008301526104ac81610470565b9050919050565b7f4e487b7100000000000000000000000000000000000000000000000000000000600052601160045260246000fd5b60006104ed8261033a565b91506104f88361033a565b9250827fffffffffffffffffffffffffffffffffffffffffffffffffffffffffffffffff0382111561052d5761052c6104b3565b5b82820190509291505056fea2646970667358221220657f58d02a05a8bdfaab3c3d8e5488b20c5957054c11bdea935d2a6f676d758a64736f6c634300080f0033",
  "immutableReferences": {},
  "source": "// SPDX-License-Identifier: MIT\r\n\r\npragma solidity >=0.8.0 <0.9.0;\r\n\r\ncontract Funder {\r\n    mapping(address => uint256) funder;\r\n    address payable public owner;\r\n    uint256 public totalFunding;\r\n    uint256 public no_ofFunders;\r\n\r\n    constructor() {\r\n        owner = payable(msg.sender);\r\n    }\r\n\r\n    function payFund() public payable {\r\n        require(msg.value >= 1 ether, \"Invalid Amount\");\r\n        if (funder[msg.sender] == 0) {\r\n            no_ofFunders += 1;\r\n        }\r\n        funder[msg.sender] += msg.value;\r\n        totalFunding += msg.value;\r\n    }\r\n\r\n    function transferFunding() public {\r\n        require(msg.sender == owner, \"Only owner can transfer\");\r\n        owner.transfer(address(this).balance);\r\n    }\r\n}\r\n",
  "sourcePath": "E:\\Blockchain lab\\project\\project#1 (funding)\\contracts\\Funder.sol",
  "compiler": {
    "name": "solc",
    "version": "0.8.15+commit.e14f2714.Emscripten.clang"
  },
  "schemaVersion": "3.4.8",
  "updatedAt": "2022-08-13T11:29:16.071Z",
  "networkType": "ethereum",
  "devdoc": {
    "kind": "dev",
    "methods": {},
    "version": 1
  },
  "userdoc": {
    "kind": "user",
    "methods": {},
    "version": 1
  }
}